:020000040000FA
:020000000528D1
:0800080009008316031383169F
:100010000317880183160317890183160313003021
:1000200085008600870088008900831203138500FD
:1000300086008700880089009E209E209E205F21E8
:100040005F215F219E205F219E205F219E205F21F6
:100050005F219E205F219E205F219E202022202262
:100060002022202220222022A122A122A122A1227C
:10007000A122A1222022A1222022A1222022A122EB
:100080002022A1222022A1222022A122A12220225C
:10009000A1222022A1222022A1222022A12220224C
:1000A000A1222022222322232223222322232223AD
:1000B0002223222322232223222322237323732376
:1000C0007323732373237323732373237323732380
:1000D0007323732322237323222373232223732363
:1000E00022237323222373232223732322237323A4
:1000F0002223732322237323732322237323222394
:100100007323222373232223732322237323222383
:100110007323222373232223732322231C285C307E
:10012000A000A100A00B9228A10B9228080000308B
:100130008500860087008800890008009720051444
:100140008514051585158F209720851405158515AF
:1001500005168F20972005158515051685168F2005
:10016000972085150516851609148F2097200516EA
:100170008516091489148F2097208516091489146F
:1001800007148F20972009148914071487148F20CF
:10019000972089140714871407158F2097200714B8
:1001A0008714071587158F20972087140715871543
:1001B00008148F20972007158715081488148F209E
:1001C000972087150814881408158F209720081485
:1001D0008814081588158F2097208814081588150D
:1001E00007168F20972008158815071687168F2069
:1001F000972088150716871607178F209720071650
:100200008716071787178F209720871607178717D6
:1002100008168F20972007178717081688168F2033
:10022000972087170816881608178F20972008161A
:100230008816081788178F209720881608178817A0
:1002400006148F20972008178817061486148F200D
:10025000972088170614861406158F2097200614F9
:100260008614061586158F20972086140615861588
:1002700006168F20972006158615061686168F20DF
:10028000972086150616861606178F2097200616C5
:100290008616061786178F2097208616061786174C
:1002A00005148F20972006178617051485148F20B4
:1002B000972086170514851405158F2008009720B0
:1002C00085150515851405148F20972005158514AF
:1002D000051486178F209720851405148617061796
:1002E0008F20972005148617061786168F209720D3
:1002F00086170617861606168F209720061786166D
:10030000061686158F209720861606168615061562
:100310008F20972006168615061586148F209720A5
:1003200086150615861406148F2097200615861448
:10033000061488178F20972086140614881708172C
:100340008F20972006148817081788168F2097206B
:1003500088170817881608168F2097200817881600
:10036000081687178F2097208816081687170717F3
:100370008F20972008168717071787168F2097203A
:1003800087170717871607168F20972007178716D6
:10039000071688158F2097208716071688150815C9
:1003A0008F20972007168815081588148F2097200E
:1003B00088150815881408148F20972008158814AC
:1003C000081487158F20972088140814871507159F
:1003D0008F20972008148715071587148F209720E2
:1003E00087150715871407148F2097200715871482
:1003F000071489148F20972087140714891409146F
:100400008F20972007148914091485168F209720B0
:1004100089140914851605168F209720091485164E
:10042000051685158F209720851605168515051547
:100430008F20972005168515051585148F20080037
:1004400097208514051585158716071787178F20A0
:1004500097200515851505160717871708168F208D
:1004600097208515051685168717081688168F207C
:1004700097200516851609140816881608178F2068
:1004800097208516091489148816081788178F2055
:1004900097200914891407140817881706148F2049
:1004A00097208914071487148817061486148F2040
:1004B00097200714871407150614861406158F2035
:1004C00097208714071587158614061586158F2023
:1004D00097200715871508140615861506168F2010
:1004E00097208715081488148615061686168F20FF
:1004F00097200814881408150616861606178F20EC
:1005000097208814081588158616061786178F20D9
:1005100097200815881507160617861705148F20CB
:1005200097208815071687168617051485148F20BF
:1005300097200716871607170514851405158F20B1
:100540000800972085150515851487170717871646
:100550008F20972005158514051407178716071691
:100560008F2097208514051486178716071688157F
:100570008F2097200514861706170716881508156B
:100580008F20972086170617861688150815881459
:100590008F2097200617861606160815881408144B
:1005A0008F2097208616061686158814081487153E
:1005B0008F2097200616861506150814871507152F
:1005C0008F20972086150615861487150715871422
:1005D0008F20972006158614061407158714071414
:1005E0008F209720861406148817871407148914FF
:1005F0008F209720061488170817071489140914E8
:100600008F209720881708178816891409148516D3
:100610008F209720081788160816091485160516C6
:100620008F209720881608168717851605168515BA
:100630008F209720081687170717051685150515AB
:100640008F200800972005158515071587150717B2
:100650008717061586158F2097208515051687158F
:10066000081487170816861506168F20972005167A
:1006700085160814881408168816061686168F2004
:1006800097208516091488140815881608178616E9
:1006900006178F2097200914891408158815081744
:1006A0008817061786178F20972089140714881536
:1006B000071688170614861705148F20972007142D
:1006C00087140716871606148614051485148F20C0
:1006D00097208714071587160717861406158514A3
:1006E00005158F2008009720851505158615061518
:1006F00087170717871507158F209720051585146D
:100700000615861407178716071587148F2097205C
:100710008514051486140614871607168714071403
:100720008F2097200514861706148817071688153A
:10073000071489148F209720861706178817081723
:1007400088150815891409148F2097200617861616
:100750000817881608158814091485168F20972005
:1007600086160616881608168814081485160516A7
:100770008F209720061686150816871708148715E8
:08078000051685158F20080005
:02400E00F42F8D
:00000001FF
